{
  "contractName": "MlabTeamToken",
  "abi": [
    {
      "inputs": [],
      "stateMutability": "nonpayable",
      "type": "constructor"
    },
    {
      "anonymous": false,
      "inputs": [
        {
          "indexed": true,
          "internalType": "address",
          "name": "owner",
          "type": "address"
        },
        {
          "indexed": true,
          "internalType": "address",
          "name": "spender",
          "type": "address"
        },
        {
          "indexed": false,
          "internalType": "uint256",
          "name": "value",
          "type": "uint256"
        }
      ],
      "name": "Approval",
      "type": "event"
    },
    {
      "anonymous": false,
      "inputs": [
        {
          "indexed": true,
          "internalType": "address",
          "name": "from",
          "type": "address"
        },
        {
          "indexed": true,
          "internalType": "address",
          "name": "to",
          "type": "address"
        },
        {
          "indexed": false,
          "internalType": "uint256",
          "name": "value",
          "type": "uint256"
        }
      ],
      "name": "Transfer",
      "type": "event"
    },
    {
      "inputs": [],
      "name": "admin",
      "outputs": [
        {
          "internalType": "address",
          "name": "",
          "type": "address"
        }
      ],
      "stateMutability": "view",
      "type": "function",
      "constant": true
    },
    {
      "inputs": [
        {
          "internalType": "address",
          "name": "owner",
          "type": "address"
        },
        {
          "internalType": "address",
          "name": "spender",
          "type": "address"
        }
      ],
      "name": "allowance",
      "outputs": [
        {
          "internalType": "uint256",
          "name": "",
          "type": "uint256"
        }
      ],
      "stateMutability": "view",
      "type": "function",
      "constant": true
    },
    {
      "inputs": [
        {
          "internalType": "address",
          "name": "spender",
          "type": "address"
        },
        {
          "internalType": "uint256",
          "name": "amount",
          "type": "uint256"
        }
      ],
      "name": "approve",
      "outputs": [
        {
          "internalType": "bool",
          "name": "",
          "type": "bool"
        }
      ],
      "stateMutability": "nonpayable",
      "type": "function"
    },
    {
      "inputs": [
        {
          "internalType": "address",
          "name": "account",
          "type": "address"
        }
      ],
      "name": "balanceOf",
      "outputs": [
        {
          "internalType": "uint256",
          "name": "",
          "type": "uint256"
        }
      ],
      "stateMutability": "view",
      "type": "function",
      "constant": true
    },
    {
      "inputs": [],
      "name": "decimals",
      "outputs": [
        {
          "internalType": "uint8",
          "name": "",
          "type": "uint8"
        }
      ],
      "stateMutability": "view",
      "type": "function",
      "constant": true
    },
    {
      "inputs": [
        {
          "internalType": "address",
          "name": "spender",
          "type": "address"
        },
        {
          "internalType": "uint256",
          "name": "subtractedValue",
          "type": "uint256"
        }
      ],
      "name": "decreaseAllowance",
      "outputs": [
        {
          "internalType": "bool",
          "name": "",
          "type": "bool"
        }
      ],
      "stateMutability": "nonpayable",
      "type": "function"
    },
    {
      "inputs": [
        {
          "internalType": "address",
          "name": "spender",
          "type": "address"
        },
        {
          "internalType": "uint256",
          "name": "addedValue",
          "type": "uint256"
        }
      ],
      "name": "increaseAllowance",
      "outputs": [
        {
          "internalType": "bool",
          "name": "",
          "type": "bool"
        }
      ],
      "stateMutability": "nonpayable",
      "type": "function"
    },
    {
      "inputs": [],
      "name": "name",
      "outputs": [
        {
          "internalType": "string",
          "name": "",
          "type": "string"
        }
      ],
      "stateMutability": "view",
      "type": "function",
      "constant": true
    },
    {
      "inputs": [],
      "name": "symbol",
      "outputs": [
        {
          "internalType": "string",
          "name": "",
          "type": "string"
        }
      ],
      "stateMutability": "view",
      "type": "function",
      "constant": true
    },
    {
      "inputs": [],
      "name": "totalSupply",
      "outputs": [
        {
          "internalType": "uint256",
          "name": "",
          "type": "uint256"
        }
      ],
      "stateMutability": "view",
      "type": "function",
      "constant": true
    },
    {
      "inputs": [
        {
          "internalType": "address",
          "name": "to",
          "type": "address"
        },
        {
          "internalType": "uint256",
          "name": "amount",
          "type": "uint256"
        }
      ],
      "name": "transfer",
      "outputs": [
        {
          "internalType": "bool",
          "name": "",
          "type": "bool"
        }
      ],
      "stateMutability": "nonpayable",
      "type": "function"
    },
    {
      "inputs": [
        {
          "internalType": "address",
          "name": "from",
          "type": "address"
        },
        {
          "internalType": "address",
          "name": "to",
          "type": "address"
        },
        {
          "internalType": "uint256",
          "name": "amount",
          "type": "uint256"
        }
      ],
      "name": "transferFrom",
      "outputs": [
        {
          "internalType": "bool",
          "name": "",
          "type": "bool"
        }
      ],
      "stateMutability": "nonpayable",
      "type": "function"
    },
    {
      "inputs": [
        {
          "internalType": "address",
          "name": "to",
          "type": "address"
        },
        {
          "internalType": "uint256",
          "name": "amount",
          "type": "uint256"
        }
      ],
      "name": "mint",
      "outputs": [],
      "stateMutability": "nonpayable",
      "type": "function"
    },
    {
      "inputs": [
        {
          "internalType": "uint256",
          "name": "amount",
          "type": "uint256"
        }
      ],
      "name": "burn",
      "outputs": [],
      "stateMutability": "nonpayable",
      "type": "function"
    }
  ],
  "bytecode": "0x60806040526040518060400160405280600f81526020017f4d4c4142207465616d20746f6b656e000000000000000000000000000000000081525060069080519060200190620000519291906200042d565b506040518060400160405280600481526020017f4d4c414200000000000000000000000000000000000000000000000000000000815250600790805190602001906200009f9291906200042d565b506002600860006101000a81548160ff021916908360ff160217905550348015620000c957600080fd5b5060068054620000d9906200050c565b80601f016020809104026020016040519081016040528092919081815260200182805462000107906200050c565b8015620001585780601f106200012c5761010080835404028352916020019162000158565b820191906000526020600020905b8154815290600101906020018083116200013a57829003601f168201915b5050505050600780546200016c906200050c565b80601f01602080910402602001604051908101604052809291908181526020018280546200019a906200050c565b8015620001eb5780601f10620001bf57610100808354040283529160200191620001eb565b820191906000526020600020905b815481529060010190602001808311620001cd57829003601f168201915b50505050508160039080519060200190620002089291906200042d565b508060049080519060200190620002219291906200042d565b5050506200026333600860009054906101000a900460ff16600a620002479190620006dc565b620186a06200025791906200072d565b620002aa60201b60201c565b33600560006101000a81548173ffffffffffffffffffffffffffffffffffffffff021916908373ffffffffffffffffffffffffffffffffffffffff1602179055506200089c565b600073ffffffffffffffffffffffffffffffffffffffff168273ffffffffffffffffffffffffffffffffffffffff1614156200031d576040517f08c379a00000000000000000000000000000000000000000000000000000000081526004016200031490620007ef565b60405180910390fd5b62000331600083836200042360201b60201c565b806002600082825462000345919062000811565b92505081905550806000808473ffffffffffffffffffffffffffffffffffffffff1673ffffffffffffffffffffffffffffffffffffffff16815260200190815260200160002060008282546200039c919062000811565b925050819055508173ffffffffffffffffffffffffffffffffffffffff16600073ffffffffffffffffffffffffffffffffffffffff167fddf252ad1be2c89b69c2b068fc378daa952ba7f163c4a11628f55a4df523b3ef836040516200040391906200087f565b60405180910390a36200041f600083836200042860201b60201c565b5050565b505050565b505050565b8280546200043b906200050c565b90600052602060002090601f0160209004810192826200045f5760008555620004ab565b82601f106200047a57805160ff1916838001178555620004ab565b82800160010185558215620004ab579182015b82811115620004aa5782518255916020019190600101906200048d565b5b509050620004ba9190620004be565b5090565b5b80821115620004d9576000816000905550600101620004bf565b5090565b7f4e487b7100000000000000000000000000000000000000000000000000000000600052602260045260246000fd5b600060028204905060018216806200052557607f821691505b602082108114156200053c576200053b620004dd565b5b50919050565b7f4e487b7100000000000000000000000000000000000000000000000000000000600052601160045260246000fd5b60008160011c9050919050565b6000808291508390505b6001851115620005d057808604811115620005a857620005a762000542565b5b6001851615620005b85780820291505b8081029050620005c88562000571565b945062000588565b94509492505050565b600082620005eb5760019050620006be565b81620005fb5760009050620006be565b81600181146200061457600281146200061f5762000655565b6001915050620006be565b60ff84111562000634576200063362000542565b5b8360020a9150848211156200064e576200064d62000542565b5b50620006be565b5060208310610133831016604e8410600b84101617156200068f5782820a90508381111562000689576200068862000542565b5b620006be565b6200069e84848460016200057e565b92509050818404811115620006b857620006b762000542565b5b81810290505b9392505050565b6000819050919050565b600060ff82169050919050565b6000620006e982620006c5565b9150620006f683620006cf565b9250620007257fffffffffffffffffffffffffffffffffffffffffffffffffffffffffffffffff8484620005d9565b905092915050565b60006200073a82620006c5565b91506200074783620006c5565b9250817fffffffffffffffffffffffffffffffffffffffffffffffffffffffffffffffff048311821515161562000783576200078262000542565b5b828202905092915050565b600082825260208201905092915050565b7f45524332303a206d696e7420746f20746865207a65726f206164647265737300600082015250565b6000620007d7601f836200078e565b9150620007e4826200079f565b602082019050919050565b600060208201905081810360008301526200080a81620007c8565b9050919050565b60006200081e82620006c5565b91506200082b83620006c5565b9250827fffffffffffffffffffffffffffffffffffffffffffffffffffffffffffffffff0382111562000863576200086262000542565b5b828201905092915050565b6200087981620006c5565b82525050565b60006020820190506200089660008301846200086e565b92915050565b611a7480620008ac6000396000f3fe608060405234801561001057600080fd5b50600436106100ea5760003560e01c806342966c681161008c578063a457c2d711610066578063a457c2d71461025f578063a9059cbb1461028f578063dd62ed3e146102bf578063f851a440146102ef576100ea565b806342966c68146101f557806370a082311461021157806395d89b4114610241576100ea565b806323b872dd116100c857806323b872dd1461015b578063313ce5671461018b57806339509351146101a957806340c10f19146101d9576100ea565b806306fdde03146100ef578063095ea7b31461010d57806318160ddd1461013d575b600080fd5b6100f761030d565b60405161010491906110a7565b60405180910390f35b61012760048036038101906101229190611162565b61039f565b60405161013491906111bd565b60405180910390f35b6101456103c2565b60405161015291906111e7565b60405180910390f35b61017560048036038101906101709190611202565b6103cc565b60405161018291906111bd565b60405180910390f35b6101936103fb565b6040516101a09190611271565b60405180910390f35b6101c360048036038101906101be9190611162565b610404565b6040516101d091906111bd565b60405180910390f35b6101f360048036038101906101ee9190611162565b6104ae565b005b61020f600480360381019061020a919061128c565b61054c565b005b61022b600480360381019061022691906112b9565b610559565b60405161023891906111e7565b60405180910390f35b6102496105a1565b60405161025691906110a7565b60405180910390f35b61027960048036038101906102749190611162565b610633565b60405161028691906111bd565b60405180910390f35b6102a960048036038101906102a49190611162565b61071d565b6040516102b691906111bd565b60405180910390f35b6102d960048036038101906102d491906112e6565b610740565b6040516102e691906111e7565b60405180910390f35b6102f76107c7565b6040516103049190611335565b60405180910390f35b60606003805461031c9061137f565b80601f01602080910402602001604051908101604052809291908181526020018280546103489061137f565b80156103955780601f1061036a57610100808354040283529160200191610395565b820191906000526020600020905b81548152906001019060200180831161037857829003601f168201915b5050505050905090565b6000806103aa6107ed565b90506103b78185856107f5565b600191505092915050565b6000600254905090565b6000806103d76107ed565b90506103e48582856109c0565b6103ef858585610a4c565b60019150509392505050565b60006012905090565b60008061040f6107ed565b90506104a3818585600160008673ffffffffffffffffffffffffffffffffffffffff1673ffffffffffffffffffffffffffffffffffffffff16815260200190815260200160002060008973ffffffffffffffffffffffffffffffffffffffff1673ffffffffffffffffffffffffffffffffffffffff1681526020019081526020016000205461049e91906113e0565b6107f5565b600191505092915050565b600560009054906101000a900473ffffffffffffffffffffffffffffffffffffffff1673ffffffffffffffffffffffffffffffffffffffff163373ffffffffffffffffffffffffffffffffffffffff161461053e576040517f08c379a000000000000000000000000000000000000000000000000000000000815260040161053590611482565b60405180910390fd5b6105488282610ccd565b5050565b6105563382610e2d565b50565b60008060008373ffffffffffffffffffffffffffffffffffffffff1673ffffffffffffffffffffffffffffffffffffffff168152602001908152602001600020549050919050565b6060600480546105b09061137f565b80601f01602080910402602001604051908101604052809291908181526020018280546105dc9061137f565b80156106295780601f106105fe57610100808354040283529160200191610629565b820191906000526020600020905b81548152906001019060200180831161060c57829003601f168201915b5050505050905090565b60008061063e6107ed565b90506000600160008373ffffffffffffffffffffffffffffffffffffffff1673ffffffffffffffffffffffffffffffffffffffff16815260200190815260200160002060008673ffffffffffffffffffffffffffffffffffffffff1673ffffffffffffffffffffffffffffffffffffffff16815260200190815260200160002054905083811015610704576040517f08c379a00000000000000000000000000000000000000000000000000000000081526004016106fb90611514565b60405180910390fd5b61071182868684036107f5565b60019250505092915050565b6000806107286107ed565b9050610735818585610a4c565b600191505092915050565b6000600160008473ffffffffffffffffffffffffffffffffffffffff1673ffffffffffffffffffffffffffffffffffffffff16815260200190815260200160002060008373ffffffffffffffffffffffffffffffffffffffff1673ffffffffffffffffffffffffffffffffffffffff16815260200190815260200160002054905092915050565b600560009054906101000a900473ffffffffffffffffffffffffffffffffffffffff1681565b600033905090565b600073ffffffffffffffffffffffffffffffffffffffff168373ffffffffffffffffffffffffffffffffffffffff161415610865576040517f08c379a000000000000000000000000000000000000000000000000000000000815260040161085c906115a6565b60405180910390fd5b600073ffffffffffffffffffffffffffffffffffffffff168273ffffffffffffffffffffffffffffffffffffffff1614156108d5576040517f08c379a00000000000000000000000000000000000000000000000000000000081526004016108cc90611638565b60405180910390fd5b80600160008573ffffffffffffffffffffffffffffffffffffffff1673ffffffffffffffffffffffffffffffffffffffff16815260200190815260200160002060008473ffffffffffffffffffffffffffffffffffffffff1673ffffffffffffffffffffffffffffffffffffffff168152602001908152602001600020819055508173ffffffffffffffffffffffffffffffffffffffff168373ffffffffffffffffffffffffffffffffffffffff167f8c5be1e5ebec7d5bd14f71427d1e84f3dd0314c0f7b2291e5b200ac8c7c3b925836040516109b391906111e7565b60405180910390a3505050565b60006109cc8484610740565b90507fffffffffffffffffffffffffffffffffffffffffffffffffffffffffffffffff8114610a465781811015610a38576040517f08c379a0000000000000000000000000000000000000000000000000000000008152600401610a2f906116a4565b60405180910390fd5b610a4584848484036107f5565b5b50505050565b600073ffffffffffffffffffffffffffffffffffffffff168373ffffffffffffffffffffffffffffffffffffffff161415610abc576040517f08c379a0000000000000000000000000000000000000000000000000000000008152600401610ab390611736565b60405180910390fd5b600073ffffffffffffffffffffffffffffffffffffffff168273ffffffffffffffffffffffffffffffffffffffff161415610b2c576040517f08c379a0000000000000000000000000000000000000000000000000000000008152600401610b23906117c8565b60405180910390fd5b610b37838383611004565b60008060008573ffffffffffffffffffffffffffffffffffffffff1673ffffffffffffffffffffffffffffffffffffffff16815260200190815260200160002054905081811015610bbd576040517f08c379a0000000000000000000000000000000000000000000000000000000008152600401610bb49061185a565b60405180910390fd5b8181036000808673ffffffffffffffffffffffffffffffffffffffff1673ffffffffffffffffffffffffffffffffffffffff16815260200190815260200160002081905550816000808573ffffffffffffffffffffffffffffffffffffffff1673ffffffffffffffffffffffffffffffffffffffff1681526020019081526020016000206000828254610c5091906113e0565b925050819055508273ffffffffffffffffffffffffffffffffffffffff168473ffffffffffffffffffffffffffffffffffffffff167fddf252ad1be2c89b69c2b068fc378daa952ba7f163c4a11628f55a4df523b3ef84604051610cb491906111e7565b60405180910390a3610cc7848484611009565b50505050565b600073ffffffffffffffffffffffffffffffffffffffff168273ffffffffffffffffffffffffffffffffffffffff161415610d3d576040517f08c379a0000000000000000000000000000000000000000000000000000000008152600401610d34906118c6565b60405180910390fd5b610d4960008383611004565b8060026000828254610d5b91906113e0565b92505081905550806000808473ffffffffffffffffffffffffffffffffffffffff1673ffffffffffffffffffffffffffffffffffffffff1681526020019081526020016000206000828254610db091906113e0565b925050819055508173ffffffffffffffffffffffffffffffffffffffff16600073ffffffffffffffffffffffffffffffffffffffff167fddf252ad1be2c89b69c2b068fc378daa952ba7f163c4a11628f55a4df523b3ef83604051610e1591906111e7565b60405180910390a3610e2960008383611009565b5050565b600073ffffffffffffffffffffffffffffffffffffffff168273ffffffffffffffffffffffffffffffffffffffff161415610e9d576040517f08c379a0000000000000000000000000000000000000000000000000000000008152600401610e9490611958565b60405180910390fd5b610ea982600083611004565b60008060008473ffffffffffffffffffffffffffffffffffffffff1673ffffffffffffffffffffffffffffffffffffffff16815260200190815260200160002054905081811015610f2f576040517f08c379a0000000000000000000000000000000000000000000000000000000008152600401610f26906119ea565b60405180910390fd5b8181036000808573ffffffffffffffffffffffffffffffffffffffff1673ffffffffffffffffffffffffffffffffffffffff168152602001908152602001600020819055508160026000828254610f869190611a0a565b92505081905550600073ffffffffffffffffffffffffffffffffffffffff168373ffffffffffffffffffffffffffffffffffffffff167fddf252ad1be2c89b69c2b068fc378daa952ba7f163c4a11628f55a4df523b3ef84604051610feb91906111e7565b60405180910390a3610fff83600084611009565b505050565b505050565b505050565b600081519050919050565b600082825260208201905092915050565b60005b8381101561104857808201518184015260208101905061102d565b83811115611057576000848401525b50505050565b6000601f19601f8301169050919050565b60006110798261100e565b6110838185611019565b935061109381856020860161102a565b61109c8161105d565b840191505092915050565b600060208201905081810360008301526110c1818461106e565b905092915050565b600080fd5b600073ffffffffffffffffffffffffffffffffffffffff82169050919050565b60006110f9826110ce565b9050919050565b611109816110ee565b811461111457600080fd5b50565b60008135905061112681611100565b92915050565b6000819050919050565b61113f8161112c565b811461114a57600080fd5b50565b60008135905061115c81611136565b92915050565b60008060408385031215611179576111786110c9565b5b600061118785828601611117565b92505060206111988582860161114d565b9150509250929050565b60008115159050919050565b6111b7816111a2565b82525050565b60006020820190506111d260008301846111ae565b92915050565b6111e18161112c565b82525050565b60006020820190506111fc60008301846111d8565b92915050565b60008060006060848603121561121b5761121a6110c9565b5b600061122986828701611117565b935050602061123a86828701611117565b925050604061124b8682870161114d565b9150509250925092565b600060ff82169050919050565b61126b81611255565b82525050565b60006020820190506112866000830184611262565b92915050565b6000602082840312156112a2576112a16110c9565b5b60006112b08482850161114d565b91505092915050565b6000602082840312156112cf576112ce6110c9565b5b60006112dd84828501611117565b91505092915050565b600080604083850312156112fd576112fc6110c9565b5b600061130b85828601611117565b925050602061131c85828601611117565b9150509250929050565b61132f816110ee565b82525050565b600060208201905061134a6000830184611326565b92915050565b7f4e487b7100000000000000000000000000000000000000000000000000000000600052602260045260246000fd5b6000600282049050600182168061139757607f821691505b602082108114156113ab576113aa611350565b5b50919050565b7f4e487b7100000000000000000000000000000000000000000000000000000000600052601160045260246000fd5b60006113eb8261112c565b91506113f68361112c565b9250827fffffffffffffffffffffffffffffffffffffffffffffffffffffffffffffffff0382111561142b5761142a6113b1565b5b828201905092915050565b7f6f6e6c792061646d696e00000000000000000000000000000000000000000000600082015250565b600061146c600a83611019565b915061147782611436565b602082019050919050565b6000602082019050818103600083015261149b8161145f565b9050919050565b7f45524332303a2064656372656173656420616c6c6f77616e63652062656c6f7760008201527f207a65726f000000000000000000000000000000000000000000000000000000602082015250565b60006114fe602583611019565b9150611509826114a2565b604082019050919050565b6000602082019050818103600083015261152d816114f1565b9050919050565b7f45524332303a20617070726f76652066726f6d20746865207a65726f2061646460008201527f7265737300000000000000000000000000000000000000000000000000000000602082015250565b6000611590602483611019565b915061159b82611534565b604082019050919050565b600060208201905081810360008301526115bf81611583565b9050919050565b7f45524332303a20617070726f766520746f20746865207a65726f20616464726560008201527f7373000000000000000000000000000000000000000000000000000000000000602082015250565b6000611622602283611019565b915061162d826115c6565b604082019050919050565b6000602082019050818103600083015261165181611615565b9050919050565b7f45524332303a20696e73756666696369656e7420616c6c6f77616e6365000000600082015250565b600061168e601d83611019565b915061169982611658565b602082019050919050565b600060208201905081810360008301526116bd81611681565b9050919050565b7f45524332303a207472616e736665722066726f6d20746865207a65726f20616460008201527f6472657373000000000000000000000000000000000000000000000000000000602082015250565b6000611720602583611019565b915061172b826116c4565b604082019050919050565b6000602082019050818103600083015261174f81611713565b9050919050565b7f45524332303a207472616e7366657220746f20746865207a65726f206164647260008201527f6573730000000000000000000000000000000000000000000000000000000000602082015250565b60006117b2602383611019565b91506117bd82611756565b604082019050919050565b600060208201905081810360008301526117e1816117a5565b9050919050565b7f45524332303a207472616e7366657220616d6f756e742065786365656473206260008201527f616c616e63650000000000000000000000000000000000000000000000000000602082015250565b6000611844602683611019565b915061184f826117e8565b604082019050919050565b6000602082019050818103600083015261187381611837565b9050919050565b7f45524332303a206d696e7420746f20746865207a65726f206164647265737300600082015250565b60006118b0601f83611019565b91506118bb8261187a565b602082019050919050565b600060208201905081810360008301526118df816118a3565b9050919050565b7f45524332303a206275726e2066726f6d20746865207a65726f2061646472657360008201527f7300000000000000000000000000000000000000000000000000000000000000602082015250565b6000611942602183611019565b915061194d826118e6565b604082019050919050565b6000602082019050818103600083015261197181611935565b9050919050565b7f45524332303a206275726e20616d6f756e7420657863656564732062616c616e60008201527f6365000000000000000000000000000000000000000000000000000000000000602082015250565b60006119d4602283611019565b91506119df82611978565b604082019050919050565b60006020820190508181036000830152611a03816119c7565b9050919050565b6000611a158261112c565b9150611a208361112c565b925082821015611a3357611a326113b1565b5b82820390509291505056fea2646970667358221220406b8caf7e5a8a967a00d845844be8a0b083cf12cfb078dab42833639a288cda64736f6c634300080c0033",
  "immutableReferences": {},
  "source": "/**\r\nMLAB team token: MLAB\r\nMeme token for MLAB team internal using\r\n*/\r\n\r\n// SPDX-License-Identifier: Unlicensed\r\npragma solidity ^0.8.12;\r\n\r\nimport \"@openzeppelin/contracts/token/ERC20/ERC20.sol\";\r\n\r\ncontract MlabTeamToken is ERC20 {\r\n    address public admin;\r\n\r\n    string private _name = \"MLAB team token\";\r\n    string private _symbol = \"MLAB\";\r\n    uint8 private _decimals = 2;\r\n\r\n    constructor() ERC20(_name, _symbol) {\r\n        _mint(msg.sender, 100000 * 10 ** _decimals);\r\n        admin = msg.sender;\r\n    }\r\n\r\n    function mint(address to, uint amount) external {\r\n        require(msg.sender == admin, 'only admin');\r\n        _mint(to, amount);\r\n    }\r\n\r\n    function burn(uint amount) external {\r\n        _burn(msg.sender, amount);\r\n    }\r\n}",
  "sourcePath": "/mnt/c/Users/wichita/dev/mlab-contracts/contracts/MlabTeamToken.sol",
  "compiler": {
    "name": "solc",
    "version": "0.8.12+commit.f00d7308.Emscripten.clang"
  },
  "schemaVersion": "3.4.6",
  "updatedAt": "2022-03-15T09:37:48.673Z",
  "networkType": "ethereum",
  "devdoc": {
    "kind": "dev",
    "methods": {
      "allowance(address,address)": {
        "details": "See {IERC20-allowance}."
      },
      "approve(address,uint256)": {
        "details": "See {IERC20-approve}. NOTE: If `amount` is the maximum `uint256`, the allowance is not updated on `transferFrom`. This is semantically equivalent to an infinite approval. Requirements: - `spender` cannot be the zero address."
      },
      "balanceOf(address)": {
        "details": "See {IERC20-balanceOf}."
      },
      "decimals()": {
        "details": "Returns the number of decimals used to get its user representation. For example, if `decimals` equals `2`, a balance of `505` tokens should be displayed to a user as `5.05` (`505 / 10 ** 2`). Tokens usually opt for a value of 18, imitating the relationship between Ether and Wei. This is the value {ERC20} uses, unless this function is overridden; NOTE: This information is only used for _display_ purposes: it in no way affects any of the arithmetic of the contract, including {IERC20-balanceOf} and {IERC20-transfer}."
      },
      "decreaseAllowance(address,uint256)": {
        "details": "Atomically decreases the allowance granted to `spender` by the caller. This is an alternative to {approve} that can be used as a mitigation for problems described in {IERC20-approve}. Emits an {Approval} event indicating the updated allowance. Requirements: - `spender` cannot be the zero address. - `spender` must have allowance for the caller of at least `subtractedValue`."
      },
      "increaseAllowance(address,uint256)": {
        "details": "Atomically increases the allowance granted to `spender` by the caller. This is an alternative to {approve} that can be used as a mitigation for problems described in {IERC20-approve}. Emits an {Approval} event indicating the updated allowance. Requirements: - `spender` cannot be the zero address."
      },
      "name()": {
        "details": "Returns the name of the token."
      },
      "symbol()": {
        "details": "Returns the symbol of the token, usually a shorter version of the name."
      },
      "totalSupply()": {
        "details": "See {IERC20-totalSupply}."
      },
      "transfer(address,uint256)": {
        "details": "See {IERC20-transfer}. Requirements: - `to` cannot be the zero address. - the caller must have a balance of at least `amount`."
      },
      "transferFrom(address,address,uint256)": {
        "details": "See {IERC20-transferFrom}. Emits an {Approval} event indicating the updated allowance. This is not required by the EIP. See the note at the beginning of {ERC20}. NOTE: Does not update the allowance if the current allowance is the maximum `uint256`. Requirements: - `from` and `to` cannot be the zero address. - `from` must have a balance of at least `amount`. - the caller must have allowance for ``from``'s tokens of at least `amount`."
      }
    },
    "version": 1
  },
  "userdoc": {
    "kind": "user",
    "methods": {},
    "version": 1
  }
}